:020000040000fa
:080000000002040000000000f2
:020000040000fa
:100008009402000094020000940200009402000090
:100018009402000094020000940200009402000080
:100028009402000094020000940200009402000070
:100038009402000094020000940200009402000060
:020000040000fa
:020000040000fa
:100400000f8020000eff27000e0188000000000072
:1004100000012000200288000c000700803a200024
:100420000100200011000700000020000000e00093
:1004300002003200000002000000000098020200ea
:10044000000000000040da000000fe004440a90067
:10045000000020000000e000030032000000200047
:10046000a00188004440a800000006009101880017
:10047000800078000000eb0015003700e2804000ab
:1004800032a0b4009101ba00e280400032a0b40072
:100490009102ba00e280400032a0b4000002eb00fa
:1004a000472bde00f507b200602ce10004003a00a3
:1004b0000059eb008301e900fdff3e000400370016
:1004c0006128e100010032000082eb000400070017
:1004d0001101ba000200e000e8ff3a000000060047
:1004e0003159ba008301e9000c0032002159ba00e9
:1004f0008301e900080032000400e00003003a0034
:10050000e280400032a0b400f5ff370011d9ba00f4
:100510008301e900faff3a008100e800e180400031
:1005200032a0b400000006000040da000000fe0027
:020000040000fa
:100530000c00fa0040079800510798000445250078
:10054000c5142200048fbe001412220015022000e0
:1005500024079800350798000e00070035000700b3
:10056000c002a900c402a800810020000e0078008b
:100570005100070000a0250021262000660007008a
:10058000c402a90000a02500212620006200070067
:10059000f4ff37000000fa0064022000343a8800bb
:1005a000243a80000460a1000470a100243a88006d
:1005b000253a800004fe2f0004826200243a88005d
:1005c0003600200084072000a50920003774200091
:1005d000844b7800854b7800864b7800160020000d
:1005e000640420007505200027742000844b7800e7
:1005f000854b7800864b780000000000153a80009b
:10060000040027008482620004002300848f5200cb
:10061000faff3a0000000000153a800004022000b2
:1006200004826200e00f5200fbff32000080fa00fb
:10063000000006000000fa0021e2a90021a2a900a2
:100640002182a9002162a900041180000480a10078
:100650000490a1000411880020e2a90020c2a90092
:1006600020a2a9002082a9002062a9000411800014
:100670000410a1000420a100041188002002a90098
:100680004410200044118800141180000460a1006f
:100690000470a000141188009560a80021e2a80051
:1006a0002342a80000a02500212620001a000700f0
:1006b0000080fa00000006000600fa00100798000b
:1006c000210798000002eb00040f78000c003700af
:1006d0000000000015118000042020000482620048
:1006e000e00f5200fbff3a001e0290001e02420083
:1006f000144278000402fb00241188001e0fe80059
:100700002e0290009e027800848f5200f0ff3a0083
:080710000080fa000000060061
:020000040000fa
:10071800f03fb1000180b10006003500ee0309008a
:1007280000000000403fb1000180b100fbff3d0028
:100738001000b000203fb000020035000080090022
:080748000000000000000600a3
:020000040000fa
:0407500000000000a5
:020000040000fa
:0200000401f009
:04000000ffff0000fe
:020000040000fa
:0200000401f009
:04000400ff000000f9
:020000040000fa
:0200000401f009
:04000800ffff0000f6
:020000040000fa
:0200000401f009
:04000c00ffff0000f2
:020000040000fa
:0200000401f009
:0400100079ff000074
:020000040000fa
:0200000401f009
:040014007fffff006b
:020000040000fa
:0200000401f009
:04001800ffff0000e6
:020000040000fa
:0200000401f009
:04001c00ddff000004
:00000001FF
