:020000040000fa
:080000000002040000000000f2
:020000040000fa
:100008009402000094020000940200009402000090
:100018009402000094020000940200009402000080
:10002800940200009402000094020000da0200002a
:100038009402000094020000940200009402000060
:100048009402000094020000940200009402000050
:100058009402000094020000940200009402000040
:100068009402000094020000940200009402000030
:100078009402000094020000940200009402000020
:100088009402000094020000940200009402000010
:100098009402000094020000940200009402000000
:1000a80094020000940200009402000094020000f0
:1000b80094020000940200009402000094020000e0
:1000c80094020000940200009402000094020000d0
:1000d80094020000940200009402000094020000c0
:1000e80094020000940200009402000094020000b0
:1000f80094020000940200009402000094020000a0
:10010800940200009402000094020000940200008f
:10011800940200009402000094020000940200007f
:10012800940200009402000094020000940200006f
:10013800940200009402000094020000940200005f
:10014800940200009402000094020000940200004f
:10015800940200009402000094020000940200003f
:10016800940200009402000094020000940200002f
:10017800940200009402000094020000940200001f
:10018800940200009402000094020000940200000f
:1001980094020000940200009402000094020000ff
:1001a80094020000940200009402000094020000ef
:1001b80094020000940200009402000094020000df
:1001c80094020000940200009402000094020000cf
:1001d80094020000940200009402000094020000bf
:1001e80094020000940200009402000094020000af
:0801f8009402000094020000d3
:020000040000fa
:10020800940200009402000094020000940200008e
:10021800940200009402000094020000940200007e
:10022800940200009402000094020000da02000028
:10023800940200009402000094020000940200005e
:10024800940200009402000094020000940200004e
:10025800940200009402000094020000940200003e
:10026800940200009402000094020000940200002e
:10027800940200009402000094020000940200001e
:10028800940200009402000094020000940200000e
:1002980094020000940200009402000094020000fe
:1002a80094020000940200009402000094020000ee
:1002b80094020000940200009402000094020000de
:1002c80094020000940200009402000094020000ce
:1002d80094020000940200009402000094020000be
:1002e80094020000940200009402000094020000ae
:1002f800940200009402000094020000940200009e
:10030800940200009402000094020000940200008d
:10031800940200009402000094020000940200007d
:10032800940200009402000094020000940200006d
:10033800940200009402000094020000940200005d
:10034800940200009402000094020000940200004d
:10035800940200009402000094020000940200003d
:10036800940200009402000094020000940200002d
:10037800940200009402000094020000940200001d
:10038800940200009402000094020000940200000d
:1003980094020000940200009402000094020000fd
:1003a80094020000940200009402000094020000ed
:1003b80094020000940200009402000094020000dd
:1003c80094020000940200009402000094020000cd
:1003d80094020000940200009402000094020000bd
:1003e80094020000940200009402000094020000ad
:0803f8009402000094020000d1
:020000040000fa
:10040000cf8020000eff27000e01880000000000b2
:1004100000012000200288000c000700005320008b
:100420000100200011000700000020000000e00093
:10043000020032000000020000000000220502005d
:10044000000000000040da000000fe004440a90067
:10045000000020000000e000030032000000200047
:10046000a00188004440a800000006009101880017
:10047000800078000000eb0015003700e2804000ab
:1004800032a0b4009101ba00e280400032a0b40072
:100490009102ba00e280400032a0b4000002eb00fa
:1004a000472bde00f507b200602ce10004003a00a3
:1004b0000059eb008301e900fdff3e000400370016
:1004c0006128e100010032000082eb000400070017
:1004d0001101ba000200e000e8ff3a000000060047
:1004e0003159ba008301e9000c0032002159ba00e9
:1004f0008301e900080032000400e00003003a0034
:10050000e280400032a0b400f5ff370011d9ba00f4
:100510008301e900faff3a008100e800e180400031
:1005200032a0b400000006000040da000000fe0027
:020000040000fa
:100530000200fa000042eb00044f7800030037008d
:100540001e407800e70007001e4fe8001e427800ba
:10055000e04f5200faff32000042eb000440780006
:1005600008e8b70005e1a9000421a90004c1a90019
:10057000240880000440a0000450a0002408880043
:100580000002eb0004088800c40920001408880059
:100590002405800004c0a00004d0a10004e0a10054
:1005a000240588008460a9009460a8000080fa00f7
:1005b00000000600849fbe00861f78000200fa003b
:1005c0000042eb00044f7800480037009e4278005c
:1005d0000582fb00058020004322dd0004824200ea
:1005e00014027800e00f52003f0032001e437800f2
:1005f0000682fb00058020004322dd000482e80023
:100600000482420014027800e00f520027003a00f2
:100610001e4278008482fb001e4378000682fb00a5
:10062000068020004322dd006602420004024300ef
:10063000144278000442e80006802000c32add004e
:1006400085024300e6824200844a78009e42780098
:100650000582fb00058020004322dd006402420089
:100660000482420014027800e00f52001e003200a3
:100670001e4378000682fb001e4378008682fb0042
:1006800006802000c32add00e48242008502430088
:1006900095027800068020004322dd00040243001a
:1006a0000482e800050a78000f0037009e427800b7
:1006b0000582fb001e4378008682fb000680200036
:1006c000c32add008582e800850243009502780098
:1006d0008502e900068020004322dd000402430079
:1006e0000482e800050a78001e4fe8001e427800e8
:1006f000e04f5200b5ff32008460a9000080fa008c
:100700004f0378004f02be00004006000800fa00c8
:100710001007980021079800320798000042eb006c
:10072000044f7800010037001e4fe8001e4078009b
:100730000082fb00058020004322dd00048242008d
:1007400014027800e00f5200030032001e427800cd
:10075000e04f5200f4ff32001e427800e14f520099
:1007600004003a0014c0b3000440780008e8b70061
:100770001f0037009e4278000582fb0005802000a4
:100780004322dd00048242001e009000000a78002f
:100790009e4278000582fb00058020004322dd0098
:1007a000048242000482e8002e009000000a7800d3
:1007b0009e4278000582fb00058020004322dd0078
:1007c00004824200640242003e009000000a780069
:1007d0009e4278000582fb00058020004322dd0058
:1007e00004824200e60242000042eb00844a7800a4
:1007f0001e427800044078000080fa0000000600e5
:100800000200fa000042eb00044f78002b00370092
:100810009e4278000582fb00058020004322dd0017
:10082000660242000482420014427800e04f520007
:10083000160032001e4378000682fb00058020006f
:100840004322dd000482420014027800040001000b
:100850001e4278008482fb001e4378000682fb0063
:10086000068020004322dd006602420004024300ad
:10087000144278000442e90006802000c32add000b
:1008800085024300e6824200844a78009e42780056
:100890000582fb00058020004322dd006402420047
:1008a0000482420014027800e00f520002003a0075
:1008b0001e4078000b0007001e4fe8001e42780023
:1008c000e04f5200d2ff32003b0007000080fa00e8
:1008d000000006000000fa0005e1a8000080fa0010
:1008e000000006000400fa00204798002e42900005
:1008f0000482fb00058020004322dd0004824200c8
:1009000014027800e00f520006003a0074c0b300f1
:100910000440780008e8b70000c2eb00044f7800fc
:10092000020037000042eb00044f78002e42900096
:100930000482fb00058020004322dd000482420087
:100940008002eb00050a78002e4290000482fb0032
:10095000058020004322dd00048242000482e8007a
:100960008002eb00050a78002e4290000482fb0012
:10097000058020004322dd00048242006402420020
:100980008002eb00050a78002e4290000482fb00f2
:10099000058020004322dd0004824200e60242007e
:1009a0000042eb00844a78001e4278000440780040
:1009b0000080fa00000006000000fa008580200098
:1009c00095427800948020001442780084cf520031
:1009d0000e00320084802000144278000440780029
:1009e00009e8b7008480200014427800e04f5200ec
:1009f0000300320004a62e00544088000f00370088
:100a00000002eb00544088000c0037005440800086
:100a1000e00f520009003200544080000402e90057
:100a20005440880054408000e00f520003003a0018
:100a30000042eb000440780008e8b7000080fa00ac
:100a4000000006000400fa00000f7800110798006b
:100a50000002eb00040078000080fa0000000600ad
:020000040000fa
:100a6000000800000c000000000000000000000072
:020000040000fa
:0200000401f009
:04000000ffff0000fe
:020000040000fa
:0200000401f009
:04000400ff000000f9
:020000040000fa
:0200000401f009
:04000800ffff0000f6
:020000040000fa
:0200000401f009
:04000c00ffff0000f2
:020000040000fa
:0200000401f009
:0400100079ff000074
:020000040000fa
:0200000401f009
:040014007fffff006b
:020000040000fa
:0200000401f009
:04001800ffff0000e6
:020000040000fa
:0200000401f009
:04001c00ddff000004
:00000001FF
